:1000000029C04DC04CC04BC04AC049C048C047C0C1
:1000100046C0CEC244C03BC315C341C040C03FC070
:100020003EC03DC03CC046C4D8C4D7C446C4D5C4F5
:1000300079C4D3C4D2C437C4D0C4CFC4CBC4CDC414
:10004000CCC4CBC4ADC4C9C495C4C7C4C6C4C4C49D
:100050002DC4EF0411241FBECFE5D4E0DEBFCDBF19
:1000600010E0A0E6B0E0ECE4FAE002C005900D92EA
:10007000A639B107D9F721E0A6E9B0E001C01D9289
:10008000AC38B207E1F710E0CAE2D0E003C0219734
:10009000FE01D0D4C932D107D1F72BD3D5C4B0CF0C
:1000A0003FB7F8948091EB009091EC00A091ED00A7
:1000B000B091EE0022B708B600FE05C02F3F19F040
:1000C0000196A11DB11D3FBFBA2FA92F982F8827D8
:1000D000820F911DA11DB11DBC01CD0142E0660F33
:1000E000771F881F991F4A95D1F708958F929F9285
:1000F000AF92BF92CF92DF92EF92FF92D1DF4B018E
:100100005C018AE0C82ED12CE12CF12CC9DFDC0186
:10011000CB0188199909AA09BB09883E9340A1051A
:10012000B105A0F321E0C21AD108E108F10888EE78
:10013000880E83E0981EA11CB11CC114D104E104F7
:10014000F10421F7FF90EF90DF90CF90BF90AF9038
:100150009F908F900895CF92DF92EF92FF920F932E
:100160001F93CF93DF936C017A018B01C0E0D0E045
:10017000CE15DF0581F0D8016D918D01D601ED918D
:10018000FC910190F081E02DC6010995892B11F0B9
:100190002196EECF7E01C701DF91CF911F910F9184
:1001A000FF90EF90DF90CF900895089580E090E069
:1001B0000895FC01538D448D252F30E0842F90E06D
:1001C000821B930B541710F0CF9608950197089552
:1001D000FC01918D828D981761F0828DDF01A80F4F
:1001E000B11D5D968C91928D9F5F9F73928F90E071
:1001F00008958FEF9FEF0895FC01918D828D9817E0
:1002000031F0828DE80FF11D858D90E008958FEF1C
:100210009FEF0895FC01918D228D892F90E0805CE5
:100220009F4F821B91098F73992708958FEE90E05D
:10023000F1DF21E0892B09F420E0822F0895FC01F1
:10024000848DDF01A80FB11DA35ABF4F2C91848D5F
:1002500090E001968F739927848FA689B7892C9394
:10026000A089B1898C9182748C93938D848D98131D
:1002700006C00288F389E02D80818F7D80830895F8
:10028000EF92FF920F931F93CF93DF93EC0181E0E6
:10029000888F9B8D8C8D981305C0E889F9898081A2
:1002A00085FD25C0F62E0B8D10E00F5F1F4F0F73DD
:1002B0001127E02E8C8DE8120BC00FB607FCFACF89
:1002C000E889F989808185FFF5CFCE01B8DFF2CFCB
:1002D0008B8DFE01E80FF11DE35AFF4FF0829FB7AF
:1002E000F8940B8FEA89FB898081806209C09FB7EF
:1002F000F894EE89FF896083E889F98980818274A6
:1003000080839FBF81E090E0DF91CF911F910F919B
:10031000FF90EF900895CF93DF93EC01888D8823B1
:10032000C1F0EA89FB89808185FD05C0A889B9896A
:100330008C9186FD0EC00FB607FCF5CF808185FF3E
:10034000F2CFA889B9898C9185FFEDCFCE0177DFF7
:10035000E8CFDF91CF91089580E090E0892B19F0EC
:1003600065DF81114DCE08958A3010F460E301C03D
:1003700067E5680F8FEE90E083CFCF93C82F82950B
:100380008F70F2DF8C2F8F70CF91EECF90ED980FA2
:100390009A3060F09FE9980F963010F487550895D1
:1003A0009FEB980F963020F487530895892F089576
:1003B00080E00895FF920F931F93CF93DF938C01FA
:1003C000FC018081E3DFF82EF8018181DFDFC82F97
:1003D000F8018281DBDFD82FF8018381D7DF2C2F52
:1003E00030E0F0E1FF9E200D311D112494E0220F3A
:1003F000331F9A95E1F72D0F311D44E0220F331F73
:100400004A95E1F7A901480F511DCA01DF91CF912B
:100410001F910F91FF9008959FB995B39C7F262F50
:100420002370922B95BB779BFECF8FB982B38370DD
:100430006C7F682B62BB779BFECFC29AC298C09834
:1004400000000000C09A0895CF92DF92EF92FF92D1
:100450000F931F93CF93DF93AB9A24B3236024BBF6
:1004600021B32C6F21BBC62FD0E09E012A563F4FEF
:10047000790106E910E0865990406C01C601800FB1
:10048000911F0E151F0529F0F80161918F01C4DF3E
:10049000F5CF84B38C7F84BB81B3837081BBCB5693
:1004A000DF4F2881C1980000000093B380B39370A0
:1004B0008C7F892B2813F9CFC19AAB98DF91CF910C
:1004C0001F910F91FF90EF90DF90CF90089584B32C
:1004D000836084BB81B38C6F81BB6AEA85E595E557
:1004E0009BDF65E58AEA9AE297DF60EA85E595E5B4
:1004F00093DF84B38C7F84BB81B3837081BBF6CDE3
:1005000084B3836084BB81B38C6F81BB6AEA85E569
:1005100095E582DF65E58AEA9AE27EDF60E885E5B7
:1005200095E57ADF6AEA85E595E576DF65E58AEAAD
:100530009AE272DF60E285E595E56EDF84B38C7F39
:1005400084BB81B3837081BBD1CD9FB9779BFECF34
:100550008FB9779BFECFC29AC2980895C198F5DFF4
:100560000000000023B390B3C19A2370892F8C7FC1
:10057000822B0895009761F0FC0101900020E9F7BB
:100580003197AF01481B590BBC018FEE90E0E3CDD2
:1005900080E090E00895CF93DF93ECDFEC0182E7F9
:1005A00090E0E8DF8C0F9D1FDF91CF91089548D236
:1005B0001F920F920FB60F9211242F933F938F9398
:1005C0009F93AF93BF938091E7009091E800A09133
:1005D000E900B091EA003091E60023E0230F2D37C7
:1005E00020F40196A11DB11D05C026E8230F029637
:1005F000A11DB11D2093E6008093E7009093E800D1
:10060000A093E900B093EA008091EB009091EC0098
:10061000A091ED00B091EE000196A11DB11D809357
:10062000EB009093EC00A093ED00B093EE00BF912F
:10063000AF919F918F913F912F910F900FBE0F908F
:100640001F9018951F920F920FB60F9211242F939F
:100650003F934F935F936F937F938F939F93AF934A
:10066000BF93EF93FF938FEE90E0E9DDFF91EF9161
:10067000BF91AF919F918F917F916F915F914F91BA
:100680003F912F910F900FBE0F901F9018951F92C2
:100690000F920FB60F9211242F938F939F93EF9386
:1006A000FF93E091FF00F09100018081E09105014E
:1006B000F091060182FD12C09081809108018F5F48
:1006C0008F7320910901821751F0E0910801F0E049
:1006D000E151FF4F958F8093080101C08081FF9108
:1006E000EF919F918F912F910F900FBE0F901F90C0
:1006F0001895CF93DF93CDB7DEB760970FB6F89418
:10070000DEBF0FBECDBF789483B7826083BF83B74F
:10071000816083BF89B7816089BF1EBC8EB582604E
:100720008EBD8EB581608EBD8FB581608FBD85B564
:10073000846085BD85B5806485BD329A319A309AD2
:10074000379A1AB888B3836088BB87B3836087BB46
:10075000A59AAD9884B38C6084BB85B3837F85BB39
:1007600084B38C7F84BB81B3837081BB87B38C627D
:1007700087BB88B3837D88BB80E58DB981E08EB966
:10078000E091FF00F091000192E09083E091FB0086
:10079000F091FC001082E091FD00F091FE0080835A
:1007A00010920701E0910301F091040186E8808333
:1007B000E0910101F0910201808180618083E091EC
:1007C0000101F0910201808188608083E091010144
:1007D000F0910201808180688083E0910101F091B5
:1007E000020180818F7D808396ED292E90E0392E45
:1007F000CE0101963C012E0191E1490E511C85E785
:1008000090E0C9DEE6EDF0E0119286EE90E08E1702
:100810009F07D1F710E08FEE90E0FCDC892B69F0A8
:100820008FEE90E0D5DC91E0910FE12FF0E0EA52FD
:10083000FF4F80838A3021F0192F103160F3912F00
:10084000E92FF0E0EB52FF4F1082A090D60088ED28
:1008500090E0B0DD8C018DED90E0ACDD7C0180910D
:10086000E20094DDB82E8091E30090DD1F77E894DC
:10087000F7F868010E151F0508F46701C01AD10AC0
:1008800076019FEFE91AF90A4A2DAA0C550B660B5F
:10089000770BFA01E156F109E631F10508F09DC048
:1008A000ED5EFF4F09948BE790E002C08DE890E089
:1008B00072DE93C0C80149DE90C0AA9AC12CD12C27
:1008C00006191709CE14DF0408F068C08D2D55DD18
:1008D0008C2D53DD81E990E04DDE530148018C0CF5
:1008E0009D1CC4018A0D9B1D39DE90EE980F9F352B
:1008F00018F4F501808303C09EE2F50190833DDD8D
:1009000083E990E037DEEFEFAE1ABE0AA414B50417
:1009100041F783E990E02EDEC3013DDEF0E1CF0E2A
:10092000D11CD0CF90E1B99E800D1124E6E9F0E012
:1009300081932E163F06E1F7E3DDE114F10409F49B
:1009400049C0B8016F63601BDD24D394D60E8D2D92
:1009500090E0E816F90610F4DE2C02C0DD2019F054
:100960006D2DC80171DD6D2D70E0060F171FE61AA1
:10097000F70AE3CFAA9AEFEFCE16DE0679F07801F8
:10098000FFEFEF1AFF0AC801E9DD682F8FEE90E054
:1009900077DC81E0C81AD1088701EDCFAA981DC085
:1009A00086E9C82E80E0D82EF12CFE1468F48FEE74
:1009B00090E030DC892BD9F38FEE90E009DCF60172
:1009C00081936F01F394F1CFEE2039F06E2DC801C1
:1009D0003BDD03C07CDD01C093DDBEDC10CFEFEE5C
:1009E000F0E01382128288EE93E0A0E0B0E084830E
:1009F0009583A683B78384E690E09183808380E427
:100A000090E09587848729E230E0378726872BE2BC
:100A100030E0318B208B2AE230E0338B228B958BB8
:100A2000848B8CE290E0978B868B118E128E138EC6
:100A3000148E0895EE0FFF1F0590F491E02D099498
:0C0A400081E090E0F89400C0F894FFCF33
:100A4C00000000004001AB00D9008B010A01E80056
:100A5C00FC000D0A00526561647900454550524F07
:100A6C004D2050726F6772616D6D657200312E3062
:060A7C00003A20200000FA
:00000001FF
