:100000000C944B000C9473000C9473000C947300CC
:100010000C9473000C9473000C9473000C94730094
:100020000C9473000C9473000C9473000C94730084
:100030000C9473000C9473000C9473000C94730074
:100040000C9421030C9473000C9491030C946B0397
:100050000C9473000C9473000C9473000C94730054
:100060000C9473000C947300D10476057605D504C6
:100070007605120576057605C904760576057105BF
:10008000760576057605540576053C0576057605F4
:100090007405CC04790511241FBECFEFD8E0DEBF74
:1000A000CDBF11E0A0E0B1E0E6E6FBE002C00590C4
:1000B0000D92A633B107D9F722E0A6E3B1E001C063
:1000C0001D92AC32B207E1F710E0CBE4D0E004C0FF
:1000D0002197FE010E94A605CA34D107C9F70E94E4
:1000E000C3030C94B1050C9400003FB7F8948091C1
:1000F0008B0190918C01A0918D01B0918E0126B55C
:10010000A89B05C02F3F19F00196A11DB11D3FBF4F
:10011000BA2FA92F982F8827820F911DA11DB11DDD
:10012000BC01CD0142E0660F771F881F991F4A95D9
:10013000D1F708958F929F92AF92BF92CF92DF92A4
:10014000EF92FF920E9475004B015C018AE0C82E7D
:10015000D12CE12CF12C0E947500DC01CB01881917
:100160009909AA09BB09883E9340A105B10598F3F6
:1001700021E0C21AD108E108F10888EE880E83E078
:10018000981EA11CB11CC114D104E104F10419F79B
:10019000FF90EF90DF90CF90BF90AF909F908F90A7
:1001A0000895CF92DF92EF92FF920F931F93CF9318
:1001B000DF936C017A018B01C0E0D0E0CE15DF0542
:1001C00081F0D8016D918D01D601ED91FC910190E6
:1001D000F081E02DC6010995892B11F02196EECF13
:1001E0007E01C701DF91CF911F910F91FF90EF909A
:1001F000DF90CF900895089580E090E00895FC018D
:10020000538D448D252F30E0842F90E0821B930B7B
:10021000541710F0CF96089501970895FC01918D21
:10022000828D981761F0828DDF01A80FB11D5D9658
:100230008C91928D9F5F9F73928F90E008958FEFC6
:100240009FEF0895FC01918D828D981731F0828D7A
:10025000E80FF11D858D90E008958FEF9FEF0895D1
:10026000FC01918D228D892F90E0805C9F4F821B35
:1002700091098F73992708958FE891E00E943001CA
:1002800021E0892B09F420E0822F0895FC01848D60
:10029000DF01A80FB11DA35ABF4F2C91848D90E0B0
:1002A00001968F739927848FA689B7892C93A0898B
:1002B000B1898C91837080648C93938D848D981315
:1002C00006C00288F389E02D80818F7D80830895A8
:1002D000EF92FF920F931F93CF93DF93EC0181E096
:1002E000888F9B8D8C8D981305C0E889F989808152
:1002F00085FD26C0F62E0B8D10E00F5F1F4F0F738C
:100300001127E02E8C8DE8120CC00FB607FCFACF37
:10031000E889F989808185FFF5CFCE010E944601E9
:10032000F1CF8B8DFE01E80FF11DE35AFF4FF082F4
:100330009FB7F8940B8FEA89FB89808180620AC09D
:100340009FB7F894EE89FF896083E889F9898081F5
:100350008370806480839FBF81E090E0DF91CF91C4
:100360001F910F91FF90EF900895CF93DF93EC01D1
:10037000888D8823C9F0EA89FB89808185FD05C0C5
:10038000A889B9898C9186FD0FC00FB607FCF5CFFF
:10039000808185FFF2CFA889B9898C9185FFEDCF47
:1003A000CE010E944601E7CFDF91CF91089580E012
:1003B00090E0892B29F00E943C0181110C940000EF
:1003C00008958A3010F460E301C067E5680F8FE894
:1003D00091E00C946801CF93C82F82958F700E9492
:1003E000E1018C2F8F70CF910C94E10190ED980F6B
:1003F0009A3060F09FE9980F963010F48755089571
:100400009FEB980F963020F487530895892F089515
:1004100080E00895FF920F931F93CF93DF938C0199
:10042000FC0180810E94F601F82EF80181810E9472
:10043000F601C82FF80182810E94F601D82FF80139
:1004400083810E94F6012C2F30E0F0E1FF9E200D09
:10045000311D112494E0220F331F9A95E1F72D0FDF
:10046000311D44E0220F331F4A95E1F7A901480FDF
:10047000511DCA01DF91CF911F910F91FF900895F7
:100480009EBD98B19C7F262F2370922B98B90DB4F6
:1004900007FEFDCF8EBD8BB183706C7F682B6BB96F
:1004A0000DB407FEFDCF2A9A2A9828980000000074
:1004B000289A0895CF92DF92EF92FF920F931F93A5
:1004C000CF93DF93439A27B1236027B92AB12C6FCA
:1004D0002AB9C62FD0E09E012A5C3E4F790106E37F
:1004E00011E0865391406C01C601800F911F0E15DB
:1004F0001F0531F0F80161918F010E944002F4CF95
:1005000087B18C7F87B98AB183708AB9CB5CDE4FA3
:10051000288129980000000096B189B193708C7FE2
:10052000892B2813F9CF299A4398DF91CF911F91F6
:100530000F91FF90EF90DF90CF90089587B1836087
:1005400087B98AB18C6F8AB96AEA85E595E50E9418
:10055000400265E58AEA9AE20E94400260EA85E587
:1005600095E50E94400287B18C7F87B98AB183707C
:100570008AB90C949A0087B1836087B98AB18C6F6D
:100580008AB96AEA85E595E50E94400265E58AEA4E
:100590009AE20E94400260E885E595E50E944002EB
:1005A0006AEA85E595E50E94400265E58AEA9AE2F5
:1005B0000E94400260E285E595E50E94400287B115
:1005C0008C7F87B98AB183708AB90C949A009EBDDA
:1005D0000DB407FEFDCF8EBD0DB407FEFDCF2A9AE8
:1005E0002A98089529980E94E7020000000026B189
:1005F00099B1299A2370892F8C7F822B08950097B7
:1006000069F0FC0101900020E9F73197AF01481B28
:10061000590BBC018FE891E00C94D10080E090E090
:100620000895CF93DF930E94FF02EC0182E191E0F5
:100630000E94FF028C0F9D1FDF91CF9108950E94B1
:10064000AC051F920F920FB60F9211242F933F9378
:100650008F939F93AF93BF9380918701909188016F
:10066000A0918901B0918A013091860123E0230F86
:100670002D3720F40196A11DB11D05C026E8230FDA
:100680000296A11DB11D209386018093870190934E
:100690008801A0938901B0938A0180918B01909188
:1006A0008C01A0918D01B0918E010196A11DB11D0B
:1006B00080938B0190938C01A0938D01B0938E0158
:1006C000BF91AF919F918F913F912F910F900FBE4E
:1006D0000F901F9018951F920F920FB60F92112432
:1006E0002F933F934F935F936F937F938F939F933A
:1006F000AF93BF93EF93FF938FE891E00E94460181
:10070000FF91EF91BF91AF919F918F917F916F91E9
:100710005F914F913F912F910F900FBE0F901F90BF
:1007200018951F920F920FB60F9211242F938F934B
:100730009F93EF93FF93E0919F01F091A00180813F
:10074000E091A501F091A60182FD12C090818091F7
:10075000A8018F5F8F732091A901821751F0E0915A
:10076000A801F0E0E157FE4F958F8093A80101C0EA
:100770008081FF91EF919F918F912F910F900FBEEC
:100780000F901F901895CF93DF93CDB7DEB760978A
:100790000FB6F894DEBF0FBECDBF789484B58260EB
:1007A00084BD84B5816084BD85B5826085BD85B515
:1007B000816085BD80916E00816080936E00109293
:1007C000810080918100826080938100809181000E
:1007D000816080938100809180008160809380009F
:1007E0008091B10084608093B1008091B0008160FD
:1007F0008093B00080917A00846080937A00809129
:100800007A00826080937A0080917A008160809380
:100810007A0080917A00806880937A001092C100FB
:1008200085B1836085B984B1836084B93D9A459868
:1008300087B18C6087B988B1837F88B987B18C7F95
:1008400087B98AB183708AB984B18C6284B985B161
:10085000837D85B980E58CBD81E08DBDE0919F01F0
:10086000F091A00192E09083E0919B01F0919C01B6
:100870001082E0919D01F0919E0180831092A7016A
:10088000E091A301F091A40186E08083E091A101B1
:10089000F091A201808180618083E091A101F091BB
:1008A000A201808188608083E091A101F091A20182
:1008B000808180688083E091A101F091A201808114
:1008C0008F7D808396E7292E91E0392ECE01019607
:1008D0003C012E0191E1490E511C85E191E00E94FD
:1008E0001103E6E7F1E0119286E891E08E179F0789
:1008F000D1F710E08FE891E00E943001892B71F070
:100900008FE891E00E940E0191E0910FE12FF0E05D
:10091000EA58FE4F80838A3021F0192F103150F3AE
:10092000912FE92FF0E0EB58FE4F1082A090760156
:1009300088E791E00E940A028C018DE791E00E9415
:100940000A027C01809182010E94F601B82E8091FA
:1009500083010E94F6011F77E894F7F868010E15ED
:100960001F0508F46701C01AD10A76019FEFE91A42
:10097000F90A4A2DAA0C550B660B770BFA01E156C2
:10098000F109E631F10508F0B1C0EC5CFF4F0C94C1
:10099000A6058BE191E002C08DE291E00E94110377
:1009A000A5C0C8010E94E702A1C0429AC12CD12C67
:1009B00006191709CE14DF0408F074C08D2D0E94AB
:1009C000EB018C2D0E94EB0181E391E00E94FF027C
:1009D000530148018C0C9D1CC4018A0D9B1D0E9473
:1009E000F20290EE980F9F3518F4F501808303C052
:1009F0009EE2F50190830E94EB0183E391E00E9467
:100A0000FF02EFEFAE1ABE0AA414B50429F783E380
:100A100091E00E94FF02C3010E941103F0E1CF0E9A
:100A2000D11CC8CF90E1B99E800D1124E6E3F1E01E
:100A300081932E163F06E1F70E94BB02E114F104F8
:100A400009F44FC0B8016F63601BDD24D394D60E48
:100A50008D2D90E0E816F90610F4DE2C02C0DD20A2
:100A600021F06D2DC8010E945A026D2D70E0060F15
:100A7000171FE61AF70AE2CF429AEFEFCE16DE060C
:100A800089F07801FFEFEF1AFF0AC8010E94F20215
:100A9000682F8FE891E00E94680181E0C81AD108B0
:100AA0008701EBCF429822C086E3C82E81E0D82E82
:100AB000F12CFE1478F48FE891E00E943001892B2C
:100AC000D1F38FE891E00E940E01F60181936F014E
:100AD000F394EFCFEE2051F06E2DC8010E945A0220
:100AE00005C00E949E0202C00E94BB020E94D70164
:100AF000F4CEEFE8F1E01382128288EE93E0A0E0FA
:100B0000B0E084839583A683B78384E091E09183EA
:100B1000808385EC90E09587848784EC90E09787CC
:100B2000868780EC90E0918B808B81EC90E0938BBA
:100B3000828B82EC90E0958B848B86EC90E0978B97
:100B4000868B118E128E138E148E0895EE0FFF1F5A
:100B50000590F491E02D099481E090E0F8940C94D4
:060B6000B105F894FFCF7F
:100B6600000000006801D100FF00B50130010E0150
:100B760022010D0A00526561647900454550524FC5
:100B86004D2050726F6772616D6D657200312E3047
:060B9600003A20200000DF
:00000001FF
