:100000000C944A000C9467000C9467000C946700F1
:100010000C9467000C9467000C9467000C946700C4
:100020000C9467000C9467000C9467000C946700B4
:100030000C9467000C9467000C9467000C946700A4
:100040000C9467000C9467000C9467000C94670094
:100050000C9467000C9467000C9467000C94670084
:100060000C9467000C9467002F02D301D301330274
:10007000D3017402D301D3012702D301D301C702F4
:10008000D301D301D301B102D3019E02D301D30125
:10009000CA022A0211241FBECFEFD8E0DEBFCDBFB7
:1000A00011E0A0E0B1E0EAEAF5E002C005900D92AF
:1000B000A032B107D9F721E0A0E2B1E001C01D9262
:1000C000A138B207E1F70E94A5010C94D3020C9469
:1000D00000009EBD98B19C7F262F2370922B98B96B
:1000E0000DB407FEFDCF8EBD8BB183706C7F682B86
:1000F0006BB90DB407FEFDCF2A9A2A982898000004
:100100000000289A0895CF92DF92EF92FF920F930A
:100110001F93CF93DF93439A27B1236027B92AB166
:100120002C6F2AB9C62FD0E09E012F5B3E4F79017C
:1001300001E411E0815491406C01C601800F911FD0
:100140000E151F0531F0F80161918F010E946900C1
:10015000F4CF87B18C7F87B98AB183708AB9C05CCC
:10016000DE4F288129980000000096B189B1937074
:100170008C7F892B2813F9CF299A4398DF91CF914F
:100180001F910F91FF90EF90DF90CF9008959EBD4B
:100190000DB407FEFDCF8EBD0DB407FEFDCF2A9A2C
:1001A0002A98089529980E94C7000000000026B1EF
:1001B00099B1299A2370892F8C7F822B089590ED15
:1001C000980F9A3060F09FE9980F963010F4875599
:1001D00008959FEB980F963020F487530895892F48
:1001E000089580E008950F931F93CF93DF938C01C0
:1001F000FC0180810E94DF00C82FF80181810E94EC
:10020000DF00D0E0DC2FCC27D295D07F90E0982F74
:100210008827C80FD91FF80182810E94DF00F0E112
:100220008F9FC00DD11D1124F80183810E94DF0032
:100230009E01280F311DC901DF91CF911F910F91B0
:100240000895FC019191992339F08091C00085FFB8
:10025000FCCF9093C600F6CF08959091C00095FF13
:10026000FCCF8093C6000895CF93C82F90E024E080
:10027000959587952A95E1F78A3010F4805D01C045
:10028000895A0E942D018C2F8F708A3010F4805D66
:1002900001C0895ACF910C942D010E9421018AE05E
:1002A0000C942D0187B1836087B98AB18C6F8AB9AC
:1002B0006AEA85E595E50E94690065E58AEA9AE2C1
:1002C0000E94690060EA85E595E50E94690087B1B2
:1002D0008C7F87B98AB183708AB98FE39CE90197D3
:1002E000F1F700C00000089587B1836087B98AB133
:1002F0008C6F8AB96AEA85E595E50E94690065E533
:100300008AEA9AE20E94690060E885E595E50E9424
:1003100069006AEA85E595E50E94690065E58AEA73
:100320009AE20E94690060E285E595E50E94690015
:1003300087B18C7F87B98AB183708AB98FE39CE9D2
:100340000197F1F700C00000089585B1836085B979
:1003500084B1836084B93D9A459887B18C6087B930
:1003600088B1837F88B987B18C7F87B98AB1837060
:100370008AB984B18C6284B985B1837D85B980E501
:100380008CBD81E08DBD88E18093C10086E08093C3
:10039000C20091E8692E91E0792E20E3822E21E0BF
:1003A000922E3EE2532E80E091E00E944D01E1E367
:1003B000F1E0119281E0E134F807D9F7E0E08091B3
:1003C000C00087FF0BC09091C60081E08E0FF0E067
:1003D000EF5CFE4F90839A3021F0E82FE03178F304
:1003E0008E2FE82FF0E0E05DFE4F1082E0903101AB
:1003F00083E391E00E94F300EC0188E391E00E9426
:10040000F3008C0180913D010E94DF00F82E809165
:100410003E010E94DF00DF771F77BE01C017D107C2
:1004200008F4B8016C1B7D0B8B010F5F1F4F4E2D25
:10043000EE0C550B660B770BFA01E156F109E6312C
:10044000F10508F0B0CFEC5CFF4F0C94CD0286E0D4
:1004500091E002C088E191E00E944D01A4CFCE015D
:100460000E94C700A0CF429AE12CF12CC052D1408B
:10047000E016F10608F073C0109230018F2D0E9433
:1004800034018E2D0E9434018CE191E00E94210103
:1004900080E2C82E81E0D82E5E01AE0CBF1CC501E3
:1004A0008C0D9D1D0E94D20090EE980FF6019F3595
:1004B00010F4808301C050820E9434018EE191E0EB
:1004C0000E942101FFEFCF1ADF0A8C149D0439F737
:1004D0008EE191E00E94210180E291E00E944D01B5
:1004E00080E1E80EF11CC4CF90E1F99E800D11244B
:1004F000E1E4F1E081936E167F06E1F70E9474015A
:100500000115110509F443C0BE016F636C1BFF2484
:10051000F394F60E8F2D90E00817190710F4F02EC3
:1005200002C0FF2021F06F2DCE010E9483006F2DAD
:1005300070E0C60FD71F061B170BE2CF429A0C0FB5
:100540001D1FC017D10759F07E01FFEFEF1AFF0AF8
:10055000CE010E94D2000E942D01E701F2CF429805
:1005600022CF602FE1E4F1E080E0861748F490911B
:10057000C00097FFFCCF9091C60091938F5FF5CF9D
:10058000662309F410CFCE010E9483000CCF0E9495
:10059000520109CF0E94740106CFEE0FFF1F059094
:0A05A000F491E02D0994F894FFCFC8
:1005AA00526561647900454550524F4D2050726F33
:1005BA006772616D6D657200312E30003A2020003D
:00000001FF
