:100000000C944A000C9467000C9467000C946700F1
:100010000C9467000C9467000C9467000C946700C4
:100020000C9467000C9467000C9467000C946700B4
:100030000C9467000C9467000C9467000C946700A4
:100040000C9467000C9467000C9467000C94670094
:100050000C9467000C9467000C9467000C94670084
:100060000C9467000C9467003C02DE01DE01400244
:10007000DE017D02DE01DE013402DE01DE01D0029E
:10008000DE01DE01DE01BA02DE01A702DE01DE01D1
:10009000D302370211241FBECFEFD8E0DEBFCDBFA1
:1000A00011E0A0E0B1E0ECEBF5E002C005900D92AC
:1000B000A032B107D9F721E0A0E2B1E001C01D9262
:1000C000A037B207E1F70E94A5010C94DC020C9462
:1000D00000009EBD98B19C7F262F2370922B98B96B
:1000E0000DB407FEFDCF8EBD8BB183706C7F682B86
:1000F0006BB90DB407FEFDCF2A9A2A982898000004
:100100000000289A0895CF92DF92EF92FF920F930A
:100110001F93CF93DF93439A27B1236027B92AB166
:100120002C6F2AB9C62FD0E09E01205D3E4F790189
:1001300000E311E0805391406C01C601800F911FD4
:100140000E151F0531F0F80161918F010E946900C1
:10015000F4CF87B18C7F87B98AB183708AB9C15DCA
:10016000DE4F288129980000000096B189B1937074
:100170008C7F892B2813F9CF299A4398DF91CF914F
:100180001F910F91FF90EF90DF90CF9008959EBD4B
:100190000DB407FEFDCF8EBD0DB407FEFDCF2A9A2C
:1001A0002A98089529980E94C7000000000026B1EF
:1001B00099B1299A2370892F8C7F822B089590ED15
:1001C000980F9A3060F09FE9980F963010F4875599
:1001D00008959FEB980F963020F487530895892F48
:1001E000089580E008950F931F93CF93DF938C01C0
:1001F000FC0180810E94DF00C82FF80181810E94EC
:10020000DF00D0E0DC2FCC27D295D07F90E0982F74
:100210008827C80FD91FF80182810E94DF00F0E112
:100220008F9FC00DD11D1124F80183810E94DF0032
:100230009E01280F311DC901DF91CF911F910F91B0
:100240000895FC019191992339F08091C00085FFB8
:10025000FCCF9093C600F6CF08959091C00095FF13
:10026000FCCF8093C6000895CF93C82F90E024E080
:10027000959587952A95E1F78A3010F4805D01C045
:10028000895A0E942D018C2F8F708A3010F4805D66
:1002900001C0895ACF910C942D010E9421018AE05E
:1002A0000C942D0187B1836087B98AB18C6F8AB9AC
:1002B0006AEA85E595E50E94690065E58AEA9AE2C1
:1002C0000E94690060EA85E595E50E94690087B1B2
:1002D0008C7F87B98AB183708AB98FE39CE90197D3
:1002E000F1F700C00000089587B1836087B98AB133
:1002F0008C6F8AB96AEA85E595E50E94690065E533
:100300008AEA9AE20E94690060E885E595E50E9424
:1003100069006AEA85E595E50E94690065E58AEA73
:100320009AE20E94690060E285E595E50E94690015
:1003300087B18C7F87B98AB183708AB98FE39CE9D2
:100340000197F1F700C000000895CF93DF93CDB778
:10035000DEB760970FB6F894DEBF0FBECDBF85B194
:10036000836085B984B1836084B93D9A459887B12B
:100370008C6087B988B1837F88B987B18C7F87B952
:100380008AB183708AB984B18C6284B985B1837D66
:1003900085B980E58CBD81E08DBD88E18093C10089
:1003A00086E08093C20080E7282E81E0382ECE01BF
:1003B00001963C012E0191E1490E511C80E091E033
:1003C0000E944D01E0E2F1E0119281E0E033F80794
:1003D000D9F7E0E08091C00087FF0BC09091C60084
:1003E00081E08E0FF0E0E05EFE4F90839A3021F0C6
:1003F000E82FE03178F38E2FE82FF0E0E15EFE4F3A
:100400001082D090200182E291E00E94F3008C01E2
:1004100087E291E00E94F3007C0180912C010E9410
:10042000DF00C82E80912D010E94DF001F77E89425
:10043000F7F8B8010E151F0508F4B701601B710B22
:100440007B019FEFE91AF90A4D2DDD0C550B660B68
:10045000770BFA01E156F109E631F10508F0AECF6C
:10046000EC5CFF4F0C94D60286E091E002C088E17C
:1004700091E00E944D01A2CFC8010E94C7009ECF0B
:10048000429AC12CD12C06191709CE14DF0408F0AA
:100490006FC08D2D0E9434018C2D0E9434018CE19F
:1004A00091E00E942101530148018C0C9D1CC40164
:1004B0008A0D9B1D0E94D20090EE980F9F3518F474
:1004C000F501808303C09EE2F50190830E94340110
:1004D0008EE191E00E942101EFEFAE1ABE0A4A14AC
:1004E0005B0429F78EE191E00E942101C3010E9483
:1004F0004D01F0E1CF0ED11CC8CF90E1C99E800D17
:100500001124E0E3F1E081932E163F06E1F70E940B
:100510007401E114F10409F443C0B8016F63601B76
:10052000DD24D394D60E8D2D90E0E816F90610F454
:10053000DE2C02C0DD2021F06D2DC8010E94830059
:100540006D2D70E0060F171FE61AF70AE2CF429AE8
:10055000E00EF11E0E151F0559F06801EFEFCE1ADF
:10056000DE0AC8010E94D2000E942D018601F2CF4E
:10057000429824CF6E2DE0E3F1E080E0861748F446
:100580009091C00097FFFCCF9091C60091938F5F30
:10059000F5CF662309F412CFC8010E9483000ECF65
:1005A0000E9452010BCF0E94740108CFEE0FFF1F73
:0C05B0000590F491E02D0994F894FFCF21
:1005BC00526561647900454550524F4D2050726F21
:1005CC006772616D6D657200312E30003A2020002B
:00000001FF
