:1000000028C042C041C040C03FC03EC03DC03CC00F
:100010003BC03AC039C038C037C036C035C034C024
:1000200033C032C031C0CEC17BC17AC1CEC178C12C
:1000300005C276C175C1BFC173C172C149C270C169
:100040006FC16EC133C26CC120C26AC169C142C2F4
:10005000B5C111241FBECFE5D4E0DEBFCDBF10E097
:10006000A0E6B0E0ECEDF4E002C005900D92A038FF
:10007000B107D9F720E0A0E8B0E001C01D92A13E91
:10008000B207E1F721D128C2BBCF9FB995B39C7FBE
:10009000262F2370922B95BB779BFECF8FB982B30F
:1000A00083706C7F682B62BB779BFECFC29AC2982D
:1000B000C09800000000C09A0895CF92DF92EF929E
:1000C000FF920F931F93CF93DF93AB9A24B32360D8
:1000D00024BB21B32C6F21BBC62FD0E09E012F552E
:1000E0003F4F790101EA10E0815A90406C01C6014E
:1000F000800F911F0E151F0529F0F80161918F01E6
:10010000C4DFF5CF84B38C7F84BB81B3837081BBA4
:10011000C056DF4F2881C1980000000093B380B320
:1001200093708C7F892B2813F9CFC19AAB98DF91FC
:10013000CF911F910F91FF90EF90DF90CF90089596
:100140009FB9779BFECF8FB9779BFECFC29AC2989B
:100150000895C198F5DF0000000023B390B3C19A61
:100160002370892F8C7F822B089590ED980F9A3001
:1001700060F09FE9980F963010F4875508959FEB33
:10018000980F963020F487530895892F089580E0C2
:1001900008950F931F93CF93DF938C01FC0180810F
:1001A000E4DFC82FF8018181E0DFD0E0DC2FCC272D
:1001B000D295D07F90E0982F8827C80FD91FF801DB
:1001C0008281D3DFF0E18F9FC00DD11D1124F80192
:1001D0008381CBDF9E01280F311DC901DF91CF91B3
:1001E0001F910F910895FC019191992321F05D9B3E
:1001F000FECF9CB9F9CF08955D9BFECF8CB90895D1
:10020000CF93C82F90E024E0959587952A95E1F744
:100210008A3010F4805D01C0895AEEDF8C2F8F7018
:100220008A3010F4805D01C0895ACF91E5CFDBDFC1
:100230008AE0E2CF84B3836084BB81B38C6F81BBDF
:100240006AEA85E595E521DF65E58AEA9AE21DDF40
:1002500060EA85E595E519DF84B38C7F84BB81B3C3
:10026000837081BB8FE39CE90197F1F700C0000028
:10027000089584B3836084BB81B38C6F81BB6AEAC9
:1002800085E595E502DF65E58AEA9AE2FEDE60E84B
:1002900085E595E5FADE6AEA85E595E5F6DE65E54C
:1002A0008AEA9AE2F2DE60E285E595E5EEDE84B365
:1002B0008C7F84BB81B3837081BB8FE39CE9019702
:1002C000F1F700C00000089588B3836088BB87B34E
:1002D000836087BBA59AAD9884B38C6084BB85B3DB
:1002E000837F85BB84B38C7F84BB81B3837081BBE8
:1002F00087B38C6287BB88B3837D88BB80E58DB96B
:1003000081E08EB988E18AB986E880BD91EE892EB8
:1003100090E0992E20E9C22E20E0D22E3EE2532E0C
:1003200080E690E084DFE1E9F0E0119280E0E13ADC
:10033000F807D9F7E0E05F9B0AC09CB181E08E0F1F
:10034000F0E0EF56FF4F90839A3021F0E82FE03134
:1003500090F38E2FE82FF0E0E057FF4F1082E090EF
:10036000910083E990E015DFEC0188E990E011DF6E
:100370008C0180919D00F9DEF82E80919E00F5DEC3
:10038000DF771F77BE01C017D10708F4B8016C1BD7
:100390007D0B8B010F5F1F4F4E2DEE0C550B660B27
:1003A000770BFA01E156F109E631F10508F0B8CF13
:1003B000ED5EFF4F099486E690E002C088E790E08A
:1003C00036DFAECFCE01BCDEABCFAA9AE12CF12C4A
:1003D000C058D040E016F10608F066C010929000B8
:1003E0008F2D0EDF8E2D0CDF8CE790E0FCDE80E899
:1003F000682E80E0782E5E01AE0CBF1CC501860D14
:10040000971DA7DE90EE980FF3019F3510F48083BF
:1004100001C05082F5DE8EE790E0E5DEFFEF6F1A57
:100420007F0AC614D70451F78EE790E0DCDE80E83F
:1004300090E0FDDE80E1E80EF11CCCCF90E1F99E6A
:10044000800D1124E1EAF0E081938E169F06E1F71A
:1004500010DF01151105E1F1BE016F636C1BFF2474
:10046000F394F60E8F2D90E00817190710F4F02E74
:1004700002C0FF2019F06F2DCE011FDE6F2D70E03E
:10048000C60FD71F061B170BE4CFAA9A0C0F1D1F10
:10049000C017D10749F07E01FFEFEF1AFF0ACE0126
:1004A00058DEAADEE701F4CFAA983ACF602FE1EA3E
:1004B000F0E080E0861730F45F9BFECF9CB1919313
:1004C0008F5FF8CF662309F42BCFCE01F6DD28CF5E
:0C04D000B1DE26CFCEDE24CFF894FFCFA3
:1004DC00526561647900454550524F4D2050726F02
:1004EC006772616D6D657200312E30003A2020000C
:00000001FF
