:1000000028C042C041C040C03FC03EC03DC03CC00F
:100010003BC03AC039C038C037C036C035C034C024
:1000200033C032C031C0DBC186C185C1DBC183C1F1
:100030000EC281C180C1CCC17EC17DC152C27BC113
:100040007AC179C13CC277C129C275C174C14BC2A2
:10005000C2C111241FBECFE5D4E0DEBFCDBF10E08A
:10006000A0E6B0E0EEEEF4E002C005900D92A038FC
:10007000B107D9F720E0A0E8B0E001C01D92A03D93
:10008000B207E1F721D131C2BBCF9FB995B39C7FB5
:10009000262F2370922B95BB779BFECF8FB982B30F
:1000A00083706C7F682B62BB779BFECFC29AC2982D
:1000B000C09800000000C09A0895CF92DF92EF929E
:1000C000FF920F931F93CF93DF93AB9A24B32360D8
:1000D00024BB21B32C6F21BBC62FD0E09E0120573B
:1000E0003F4F790100E910E0805990406C01C60152
:1000F000800F911F0E151F0529F0F80161918F01E6
:10010000C4DFF5CF84B38C7F84BB81B3837081BBA4
:10011000C157DF4F2881C1980000000093B380B31E
:1001200093708C7F892B2813F9CFC19AAB98DF91FC
:10013000CF911F910F91FF90EF90DF90CF90089596
:100140009FB9779BFECF8FB9779BFECFC29AC2989B
:100150000895C198F5DF0000000023B390B3C19A61
:100160002370892F8C7F822B089590ED980F9A3001
:1001700060F09FE9980F963010F4875508959FEB33
:10018000980F963020F487530895892F089580E0C2
:1001900008950F931F93CF93DF938C01FC0180810F
:1001A000E4DFC82FF8018181E0DFD0E0DC2FCC272D
:1001B000D295D07F90E0982F8827C80FD91FF801DB
:1001C0008281D3DFF0E18F9FC00DD11D1124F80192
:1001D0008381CBDF9E01280F311DC901DF91CF91B3
:1001E0001F910F910895FC019191992321F05D9B3E
:1001F000FECF9CB9F9CF08955D9BFECF8CB90895D1
:10020000CF93C82F90E024E0959587952A95E1F744
:100210008A3010F4805D01C0895AEEDF8C2F8F7018
:100220008A3010F4805D01C0895ACF91E5CFDBDFC1
:100230008AE0E2CF84B3836084BB81B38C6F81BBDF
:100240006AEA85E595E521DF65E58AEA9AE21DDF40
:1002500060EA85E595E519DF84B38C7F84BB81B3C3
:10026000837081BB8FE39CE90197F1F700C0000028
:10027000089584B3836084BB81B38C6F81BB6AEAC9
:1002800085E595E502DF65E58AEA9AE2FEDE60E84B
:1002900085E595E5FADE6AEA85E595E5F6DE65E54C
:1002A0008AEA9AE2F2DE60E285E595E5EEDE84B365
:1002B0008C7F84BB81B3837081BB8FE39CE9019702
:1002C000F1F700C000000895CF93DF93CDB7DEB7FC
:1002D00060970FB6F894DEBF0FBECDBF88B38360C2
:1002E00088BB87B3836087BBA59AAD9884B38C60C5
:1002F00084BB85B3837F85BB84B38C7F84BB81B390
:10030000837081BB87B38C6287BB88B3837D88BBD6
:1003100080E58DB981E08EB988E18AB986E880BD33
:1003200080ED282E80E0382ECE0101963C012E0172
:1003300091E1490E511C80E690E079DFE0E8F0E0C1
:10034000119280E0E039F807D9F7E0E05F9B0AC03E
:100350009CB181E08E0FF0E0E058FF4F90839A301F
:1003600021F0E82FE03190F38E2FE82FF0E0E158F4
:10037000FF4F1082D090800082E890E00ADF8C016D
:1003800087E890E006DF7C0180918C00EEDEC82ECD
:1003900080918D00EADE1F77E894F7F8B8010E151A
:1003A0001F0508F4B701601B710B7B019FEFE91A71
:1003B000F90A4D2DDD0C550B660B770BFA01E15652
:1003C000F109E631F10508F0B6CFED5EFF4F099473
:1003D00086E690E002C088E790E029DFACCFC80154
:1003E000AFDEA9CFAA9AC12CD12C06191709CE14B9
:1003F000DF0408F062C08D2D03DF8C2D01DF8CE758
:1004000090E0F1DE530148018C0C9D1CC4018A0D63
:100410009B1D9FDE90EE980F9F3518F4F5018083A9
:1004200003C09EE2F5019083EBDE8EE790E0DBDE19
:10043000EFEFAE1ABE0A4A145B0441F78EE790E074
:10044000D2DEC301F4DEF0E1CF0ED11CD0CF90E1BB
:10045000C99E800D1124E0E9F0E081932E163F063D
:10046000E1F707DFE114F104E1F1B8016F63601B0C
:10047000DD24D394D60E8D2D90E0E816F90610F405
:10048000DE2C02C0DD2019F06D2DC80116DE6D2DA9
:1004900070E0060F171FE61AF70AE4CFAA9AE00EDB
:1004A000F11E0E151F0549F06801EFEFCE1ADE0AA6
:1004B000C8014FDEA1DE8601F4CFAA983CCF6E2D95
:1004C000E0E9F0E080E0861730F45F9BFECF9CB15E
:1004D00091938F5FF8CF662309F42DCFC801EDDD2E
:0E04E0002ACFA8DE28CFC5DE26CFF894FFCFA6
:1004EE00526561647900454550524F4D2050726FF0
:1004FE006772616D6D657200312E30003A202000FA
:00000001FF
